{
  "_format": "hh-sol-artifact-1",
  "contractName": "TicketMaster",
  "sourceName": "contracts/TicketMaster.sol",
  "abi": [
    {
      "inputs": [
        {
          "internalType": "string",
          "name": "_name",
          "type": "string"
        },
        {
          "internalType": "string",
          "name": "_symbol",
          "type": "string"
        }
      ],
      "stateMutability": "nonpayable",
      "type": "constructor"
    },
    {
      "anonymous": false,
      "inputs": [
        {
          "indexed": true,
          "internalType": "address",
          "name": "owner",
          "type": "address"
        },
        {
          "indexed": true,
          "internalType": "address",
          "name": "approved",
          "type": "address"
        },
        {
          "indexed": true,
          "internalType": "uint256",
          "name": "tokenId",
          "type": "uint256"
        }
      ],
      "name": "Approval",
      "type": "event"
    },
    {
      "anonymous": false,
      "inputs": [
        {
          "indexed": true,
          "internalType": "address",
          "name": "owner",
          "type": "address"
        },
        {
          "indexed": true,
          "internalType": "address",
          "name": "operator",
          "type": "address"
        },
        {
          "indexed": false,
          "internalType": "bool",
          "name": "approved",
          "type": "bool"
        }
      ],
      "name": "ApprovalForAll",
      "type": "event"
    },
    {
      "anonymous": false,
      "inputs": [
        {
          "indexed": true,
          "internalType": "uint256",
          "name": "Event_id",
          "type": "uint256"
        },
        {
          "components": [
            {
              "internalType": "uint256",
              "name": "id",
              "type": "uint256"
            },
            {
              "internalType": "string",
              "name": "name",
              "type": "string"
            },
            {
              "internalType": "uint256",
              "name": "cost",
              "type": "uint256"
            },
            {
              "internalType": "uint256",
              "name": "tickets",
              "type": "uint256"
            },
            {
              "internalType": "uint256",
              "name": "maxTickets",
              "type": "uint256"
            },
            {
              "internalType": "string",
              "name": "date",
              "type": "string"
            },
            {
              "internalType": "string",
              "name": "time",
              "type": "string"
            },
            {
              "internalType": "string",
              "name": "location",
              "type": "string"
            }
          ],
          "indexed": true,
          "internalType": "struct TicketMaster.Occasion",
          "name": "Event_details",
          "type": "tuple"
        }
      ],
      "name": "ItemListed",
      "type": "event"
    },
    {
      "anonymous": false,
      "inputs": [
        {
          "indexed": true,
          "internalType": "uint256",
          "name": "Event_id",
          "type": "uint256"
        },
        {
          "indexed": true,
          "internalType": "uint256",
          "name": "Seat_number",
          "type": "uint256"
        },
        {
          "indexed": true,
          "internalType": "address",
          "name": "Ticket_owner",
          "type": "address"
        },
        {
          "indexed": false,
          "internalType": "uint256",
          "name": "amount",
          "type": "uint256"
        }
      ],
      "name": "TicketPurchased",
      "type": "event"
    },
    {
      "anonymous": false,
      "inputs": [
        {
          "indexed": true,
          "internalType": "address",
          "name": "from",
          "type": "address"
        },
        {
          "indexed": true,
          "internalType": "address",
          "name": "to",
          "type": "address"
        },
        {
          "indexed": true,
          "internalType": "uint256",
          "name": "tokenId",
          "type": "uint256"
        }
      ],
      "name": "Transfer",
      "type": "event"
    },
    {
      "inputs": [
        {
          "internalType": "address",
          "name": "to",
          "type": "address"
        },
        {
          "internalType": "uint256",
          "name": "tokenId",
          "type": "uint256"
        }
      ],
      "name": "approve",
      "outputs": [],
      "stateMutability": "nonpayable",
      "type": "function"
    },
    {
      "inputs": [
        {
          "internalType": "address",
          "name": "owner",
          "type": "address"
        }
      ],
      "name": "balanceOf",
      "outputs": [
        {
          "internalType": "uint256",
          "name": "",
          "type": "uint256"
        }
      ],
      "stateMutability": "view",
      "type": "function"
    },
    {
      "inputs": [
        {
          "internalType": "uint256",
          "name": "tokenId",
          "type": "uint256"
        }
      ],
      "name": "getApproved",
      "outputs": [
        {
          "internalType": "address",
          "name": "",
          "type": "address"
        }
      ],
      "stateMutability": "view",
      "type": "function"
    },
    {
      "inputs": [
        {
          "internalType": "uint256",
          "name": "_id",
          "type": "uint256"
        }
      ],
      "name": "getOccasions",
      "outputs": [
        {
          "components": [
            {
              "internalType": "uint256",
              "name": "id",
              "type": "uint256"
            },
            {
              "internalType": "string",
              "name": "name",
              "type": "string"
            },
            {
              "internalType": "uint256",
              "name": "cost",
              "type": "uint256"
            },
            {
              "internalType": "uint256",
              "name": "tickets",
              "type": "uint256"
            },
            {
              "internalType": "uint256",
              "name": "maxTickets",
              "type": "uint256"
            },
            {
              "internalType": "string",
              "name": "date",
              "type": "string"
            },
            {
              "internalType": "string",
              "name": "time",
              "type": "string"
            },
            {
              "internalType": "string",
              "name": "location",
              "type": "string"
            }
          ],
          "internalType": "struct TicketMaster.Occasion",
          "name": "",
          "type": "tuple"
        }
      ],
      "stateMutability": "view",
      "type": "function"
    },
    {
      "inputs": [
        {
          "internalType": "uint256",
          "name": "_id",
          "type": "uint256"
        }
      ],
      "name": "getSeatsTaken",
      "outputs": [
        {
          "internalType": "uint256[]",
          "name": "",
          "type": "uint256[]"
        }
      ],
      "stateMutability": "view",
      "type": "function"
    },
    {
      "inputs": [
        {
          "internalType": "uint256",
          "name": "",
          "type": "uint256"
        },
        {
          "internalType": "address",
          "name": "",
          "type": "address"
        }
      ],
      "name": "hasBought",
      "outputs": [
        {
          "internalType": "bool",
          "name": "",
          "type": "bool"
        }
      ],
      "stateMutability": "view",
      "type": "function"
    },
    {
      "inputs": [
        {
          "internalType": "address",
          "name": "owner",
          "type": "address"
        },
        {
          "internalType": "address",
          "name": "operator",
          "type": "address"
        }
      ],
      "name": "isApprovedForAll",
      "outputs": [
        {
          "internalType": "bool",
          "name": "",
          "type": "bool"
        }
      ],
      "stateMutability": "view",
      "type": "function"
    },
    {
      "inputs": [
        {
          "internalType": "string",
          "name": "_name",
          "type": "string"
        },
        {
          "internalType": "uint256",
          "name": "_cost",
          "type": "uint256"
        },
        {
          "internalType": "uint256",
          "name": "_maxTickets",
          "type": "uint256"
        },
        {
          "internalType": "string",
          "name": "_date",
          "type": "string"
        },
        {
          "internalType": "string",
          "name": "_time",
          "type": "string"
        },
        {
          "internalType": "string",
          "name": "_location",
          "type": "string"
        }
      ],
      "name": "list",
      "outputs": [],
      "stateMutability": "nonpayable",
      "type": "function"
    },
    {
      "inputs": [
        {
          "internalType": "uint256",
          "name": "_id",
          "type": "uint256"
        },
        {
          "internalType": "uint256",
          "name": "_seat",
          "type": "uint256"
        }
      ],
      "name": "mint",
      "outputs": [],
      "stateMutability": "payable",
      "type": "function"
    },
    {
      "inputs": [],
      "name": "name",
      "outputs": [
        {
          "internalType": "string",
          "name": "",
          "type": "string"
        }
      ],
      "stateMutability": "view",
      "type": "function"
    },
    {
      "inputs": [
        {
          "internalType": "uint256",
          "name": "",
          "type": "uint256"
        }
      ],
      "name": "occasions",
      "outputs": [
        {
          "internalType": "uint256",
          "name": "id",
          "type": "uint256"
        },
        {
          "internalType": "string",
          "name": "name",
          "type": "string"
        },
        {
          "internalType": "uint256",
          "name": "cost",
          "type": "uint256"
        },
        {
          "internalType": "uint256",
          "name": "tickets",
          "type": "uint256"
        },
        {
          "internalType": "uint256",
          "name": "maxTickets",
          "type": "uint256"
        },
        {
          "internalType": "string",
          "name": "date",
          "type": "string"
        },
        {
          "internalType": "string",
          "name": "time",
          "type": "string"
        },
        {
          "internalType": "string",
          "name": "location",
          "type": "string"
        }
      ],
      "stateMutability": "view",
      "type": "function"
    },
    {
      "inputs": [],
      "name": "owner",
      "outputs": [
        {
          "internalType": "address",
          "name": "",
          "type": "address"
        }
      ],
      "stateMutability": "view",
      "type": "function"
    },
    {
      "inputs": [
        {
          "internalType": "uint256",
          "name": "tokenId",
          "type": "uint256"
        }
      ],
      "name": "ownerOf",
      "outputs": [
        {
          "internalType": "address",
          "name": "",
          "type": "address"
        }
      ],
      "stateMutability": "view",
      "type": "function"
    },
    {
      "inputs": [
        {
          "internalType": "address",
          "name": "from",
          "type": "address"
        },
        {
          "internalType": "address",
          "name": "to",
          "type": "address"
        },
        {
          "internalType": "uint256",
          "name": "tokenId",
          "type": "uint256"
        }
      ],
      "name": "safeTransferFrom",
      "outputs": [],
      "stateMutability": "nonpayable",
      "type": "function"
    },
    {
      "inputs": [
        {
          "internalType": "address",
          "name": "from",
          "type": "address"
        },
        {
          "internalType": "address",
          "name": "to",
          "type": "address"
        },
        {
          "internalType": "uint256",
          "name": "tokenId",
          "type": "uint256"
        },
        {
          "internalType": "bytes",
          "name": "data",
          "type": "bytes"
        }
      ],
      "name": "safeTransferFrom",
      "outputs": [],
      "stateMutability": "nonpayable",
      "type": "function"
    },
    {
      "inputs": [
        {
          "internalType": "uint256",
          "name": "",
          "type": "uint256"
        },
        {
          "internalType": "uint256",
          "name": "",
          "type": "uint256"
        }
      ],
      "name": "seatTaken",
      "outputs": [
        {
          "internalType": "address",
          "name": "",
          "type": "address"
        }
      ],
      "stateMutability": "view",
      "type": "function"
    },
    {
      "inputs": [
        {
          "internalType": "uint256",
          "name": "",
          "type": "uint256"
        },
        {
          "internalType": "uint256",
          "name": "",
          "type": "uint256"
        }
      ],
      "name": "seatesTaken",
      "outputs": [
        {
          "internalType": "uint256",
          "name": "",
          "type": "uint256"
        }
      ],
      "stateMutability": "view",
      "type": "function"
    },
    {
      "inputs": [
        {
          "internalType": "address",
          "name": "operator",
          "type": "address"
        },
        {
          "internalType": "bool",
          "name": "approved",
          "type": "bool"
        }
      ],
      "name": "setApprovalForAll",
      "outputs": [],
      "stateMutability": "nonpayable",
      "type": "function"
    },
    {
      "inputs": [
        {
          "internalType": "bytes4",
          "name": "interfaceId",
          "type": "bytes4"
        }
      ],
      "name": "supportsInterface",
      "outputs": [
        {
          "internalType": "bool",
          "name": "",
          "type": "bool"
        }
      ],
      "stateMutability": "view",
      "type": "function"
    },
    {
      "inputs": [],
      "name": "symbol",
      "outputs": [
        {
          "internalType": "string",
          "name": "",
          "type": "string"
        }
      ],
      "stateMutability": "view",
      "type": "function"
    },
    {
      "inputs": [
        {
          "internalType": "uint256",
          "name": "tokenId",
          "type": "uint256"
        }
      ],
      "name": "tokenURI",
      "outputs": [
        {
          "internalType": "string",
          "name": "",
          "type": "string"
        }
      ],
      "stateMutability": "view",
      "type": "function"
    },
    {
      "inputs": [],
      "name": "totalOccasions",
      "outputs": [
        {
          "internalType": "uint256",
          "name": "",
          "type": "uint256"
        }
      ],
      "stateMutability": "view",
      "type": "function"
    },
    {
      "inputs": [],
      "name": "totalSupply",
      "outputs": [
        {
          "internalType": "uint256",
          "name": "",
          "type": "uint256"
        }
      ],
      "stateMutability": "view",
      "type": "function"
    },
    {
      "inputs": [
        {
          "internalType": "address",
          "name": "from",
          "type": "address"
        },
        {
          "internalType": "address",
          "name": "to",
          "type": "address"
        },
        {
          "internalType": "uint256",
          "name": "tokenId",
          "type": "uint256"
        }
      ],
      "name": "transferFrom",
      "outputs": [],
      "stateMutability": "nonpayable",
      "type": "function"
    },
    {
      "inputs": [],
      "name": "withdraw",
      "outputs": [],
      "stateMutability": "payable",
      "type": "function"
    }
  ],
  "bytecode": "0x60806040523480156200001157600080fd5b5060405162004309380380620043098339818101604052810190620000379190620001ec565b8181816000908051906020019062000051929190620000be565b5080600190805190602001906200006a929190620000be565b50505033600660006101000a81548173ffffffffffffffffffffffffffffffffffffffff021916908373ffffffffffffffffffffffffffffffffffffffff16021790555060006007819055505050620003f5565b828054620000cc9062000306565b90600052602060002090601f016020900481019282620000f057600085556200013c565b82601f106200010b57805160ff19168380011785556200013c565b828001600101855582156200013c579182015b828111156200013b5782518255916020019190600101906200011e565b5b5090506200014b91906200014f565b5090565b5b808211156200016a57600081600090555060010162000150565b5090565b6000620001856200017f846200029a565b62000271565b905082815260208101848484011115620001a457620001a3620003d5565b5b620001b1848285620002d0565b509392505050565b600082601f830112620001d157620001d0620003d0565b5b8151620001e38482602086016200016e565b91505092915050565b60008060408385031215620002065762000205620003df565b5b600083015167ffffffffffffffff811115620002275762000226620003da565b5b6200023585828601620001b9565b925050602083015167ffffffffffffffff811115620002595762000258620003da565b5b6200026785828601620001b9565b9150509250929050565b60006200027d62000290565b90506200028b82826200033c565b919050565b6000604051905090565b600067ffffffffffffffff821115620002b857620002b7620003a1565b5b620002c382620003e4565b9050602081019050919050565b60005b83811015620002f0578082015181840152602081019050620002d3565b8381111562000300576000848401525b50505050565b600060028204905060018216806200031f57607f821691505b6020821081141562000336576200033562000372565b5b50919050565b6200034782620003e4565b810181811067ffffffffffffffff82111715620003695762000368620003a1565b5b80604052505050565b7f4e487b7100000000000000000000000000000000000000000000000000000000600052602260045260246000fd5b7f4e487b7100000000000000000000000000000000000000000000000000000000600052604160045260246000fd5b600080fd5b600080fd5b600080fd5b600080fd5b6000601f19601f8301169050919050565b613f0480620004056000396000f3fe6080604052600436106101665760003560e01c80636352211e116100d15780639cb04aef1161008a578063b88d4fde11610064578063b88d4fde14610561578063c87b56dd1461058a578063e985e9c5146105c7578063ea2456551461060457610166565b80639cb04aef146104be578063a22cb465146104fb578063af296da11461052457610166565b80636352211e1461039a57806370a08231146103d75780638da5cb5b14610414578063953865c11461043f57806395d89b411461046a5780639a382f0f1461049557610166565b80631b2ef1ca116101235780631b2ef1ca146102a157806323b872dd146102bd5780633ccfd60b146102e65780633cecf847146102f057806342842e0e1461032d57806361a5672d1461035657610166565b806301ffc9a71461016b57806306fdde03146101a8578063081812fc146101d3578063095ea7b3146102105780630ef7ec741461023957806318160ddd14610276575b600080fd5b34801561017757600080fd5b50610192600480360381019061018d9190612b49565b610641565b60405161019f919061342d565b60405180910390f35b3480156101b457600080fd5b506101bd610723565b6040516101ca9190613448565b60405180910390f35b3480156101df57600080fd5b506101fa60048036038101906101f59190612ca0565b6107b5565b60405161020791906133a4565b60405180910390f35b34801561021c57600080fd5b5061023760048036038101906102329190612b09565b6107fb565b005b34801561024557600080fd5b50610260600480360381019061025b9190612ca0565b610913565b60405161026d919061340b565b60405180910390f35b34801561028257600080fd5b5061028b61097e565b604051610298919061366c565b60405180910390f35b6102bb60048036038101906102b69190612d0d565b610984565b005b3480156102c957600080fd5b506102e460048036038101906102df91906129f3565b610cad565b005b6102ee610d0d565b005b3480156102fc57600080fd5b5061031760048036038101906103129190612d0d565b610e38565b604051610324919061366c565b60405180910390f35b34801561033957600080fd5b50610354600480360381019061034f91906129f3565b610e69565b005b34801561036257600080fd5b5061037d60048036038101906103789190612ca0565b610e89565b604051610391989796959493929190613687565b60405180910390f35b3480156103a657600080fd5b506103c160048036038101906103bc9190612ca0565b6110f1565b6040516103ce91906133a4565b60405180910390f35b3480156103e357600080fd5b506103fe60048036038101906103f99190612986565b611178565b60405161040b919061366c565b60405180910390f35b34801561042057600080fd5b50610429611230565b60405161043691906133a4565b60405180910390f35b34801561044b57600080fd5b50610454611256565b604051610461919061366c565b60405180910390f35b34801561047657600080fd5b5061047f61125c565b60405161048c9190613448565b60405180910390f35b3480156104a157600080fd5b506104bc60048036038101906104b79190612ba3565b6112ee565b005b3480156104ca57600080fd5b506104e560048036038101906104e09190612ccd565b6114e7565b6040516104f2919061342d565b60405180910390f35b34801561050757600080fd5b50610522600480360381019061051d9190612ac9565b611516565b005b34801561053057600080fd5b5061054b60048036038101906105469190612d0d565b61152c565b60405161055891906133a4565b60405180910390f35b34801561056d57600080fd5b5061058860048036038101906105839190612a46565b61156e565b005b34801561059657600080fd5b506105b160048036038101906105ac9190612ca0565b6115d0565b6040516105be9190613448565b60405180910390f35b3480156105d357600080fd5b506105ee60048036038101906105e991906129b3565b611638565b6040516105fb919061342d565b60405180910390f35b34801561061057600080fd5b5061062b60048036038101906106269190612ca0565b6116cc565b604051610638919061364a565b60405180910390f35b60007f80ac58cd000000000000000000000000000000000000000000000000000000007bffffffffffffffffffffffffffffffffffffffffffffffffffffffff1916827bffffffffffffffffffffffffffffffffffffffffffffffffffffffff1916148061070c57507f5b5e139f000000000000000000000000000000000000000000000000000000007bffffffffffffffffffffffffffffffffffffffffffffffffffffffff1916827bffffffffffffffffffffffffffffffffffffffffffffffffffffffff1916145b8061071c575061071b8261196a565b5b9050919050565b6060600080546107329061394a565b80601f016020809104026020016040519081016040528092919081815260200182805461075e9061394a565b80156107ab5780601f10610780576101008083540402835291602001916107ab565b820191906000526020600020905b81548152906001019060200180831161078e57829003601f168201915b5050505050905090565b60006107c0826119d4565b6004600083815260200190815260200160002060009054906101000a900473ffffffffffffffffffffffffffffffffffffffff169050919050565b6000610806826110f1565b90508073ffffffffffffffffffffffffffffffffffffffff168373ffffffffffffffffffffffffffffffffffffffff161415610877576040517f08c379a000000000000000000000000000000000000000000000000000000000815260040161086e906135ca565b60405180910390fd5b8073ffffffffffffffffffffffffffffffffffffffff16610896611a1f565b73ffffffffffffffffffffffffffffffffffffffff1614806108c557506108c4816108bf611a1f565b611638565b5b610904576040517f08c379a00000000000000000000000000000000000000000000000000000000081526004016108fb906135ea565b60405180910390fd5b61090e8383611a27565b505050565b6060600c600083815260200190815260200160002080548060200260200160405190810160405280929190818152602001828054801561097257602002820191906000526020600020905b81548152602001906001019080831161095e575b50505050509050919050565b60085481565b60096000838152602001908152602001600020600201543410156109dd576040517f08c379a00000000000000000000000000000000000000000000000000000000081526004016109d49061360a565b60405180910390fd5b6000821180156109ef57506007548211155b8015610a11575080600960008481526020019081526020016000206004015410155b610a50576040517f08c379a0000000000000000000000000000000000000000000000000000000008152600401610a47906134ea565b60405180910390fd5b600073ffffffffffffffffffffffffffffffffffffffff16600b6000848152602001908152602001600020600083815260200190815260200160002060009054906101000a900473ffffffffffffffffffffffffffffffffffffffff1673ffffffffffffffffffffffffffffffffffffffff1614610b03576040517f08c379a0000000000000000000000000000000000000000000000000000000008152600401610afa9061358a565b60405180910390fd5b600960008381526020019081526020016000206003016000815480929190610b2a90613920565b919050555060086000815480929190610b42906139c7565b91905055506001600a600084815260200190815260200160002060003373ffffffffffffffffffffffffffffffffffffffff1673ffffffffffffffffffffffffffffffffffffffff16815260200190815260200160002060006101000a81548160ff02191690831515021790555033600b6000848152602001908152602001600020600083815260200190815260200160002060006101000a81548173ffffffffffffffffffffffffffffffffffffffff021916908373ffffffffffffffffffffffffffffffffffffffff160217905550600c6000838152602001908152602001600020819080600181540180825580915050600190039060005260206000200160009091909190915055610c5933600854611ae0565b3373ffffffffffffffffffffffffffffffffffffffff1681837fc3b7539e996dc1d1252af1e3c72474162b7a9c7cc7411ca8905732eaf6fff32834604051610ca1919061366c565b60405180910390a45050565b610cbe610cb8611a1f565b82611afe565b610cfd576040517f08c379a0000000000000000000000000000000000000000000000000000000008152600401610cf49061346a565b60405180910390fd5b610d08838383611b93565b505050565b600660009054906101000a900473ffffffffffffffffffffffffffffffffffffffff1673ffffffffffffffffffffffffffffffffffffffff163373ffffffffffffffffffffffffffffffffffffffff1614610d9d576040517f08c379a0000000000000000000000000000000000000000000000000000000008152600401610d949061362a565b60405180910390fd5b6000600660009054906101000a900473ffffffffffffffffffffffffffffffffffffffff1673ffffffffffffffffffffffffffffffffffffffff1647604051610de590613378565b60006040518083038185875af1925050503d8060008114610e22576040519150601f19603f3d011682016040523d82523d6000602084013e610e27565b606091505b5050905080610e3557600080fd5b50565b600c6020528160005260406000208181548110610e5457600080fd5b90600052602060002001600091509150505481565b610e848383836040518060200160405280600081525061156e565b505050565b6009602052806000526040600020600091509050806000015490806001018054610eb29061394a565b80601f0160208091040260200160405190810160405280929190818152602001828054610ede9061394a565b8015610f2b5780601f10610f0057610100808354040283529160200191610f2b565b820191906000526020600020905b815481529060010190602001808311610f0e57829003601f168201915b505050505090806002015490806003015490806004015490806005018054610f529061394a565b80601f0160208091040260200160405190810160405280929190818152602001828054610f7e9061394a565b8015610fcb5780601f10610fa057610100808354040283529160200191610fcb565b820191906000526020600020905b815481529060010190602001808311610fae57829003601f168201915b505050505090806006018054610fe09061394a565b80601f016020809104026020016040519081016040528092919081815260200182805461100c9061394a565b80156110595780601f1061102e57610100808354040283529160200191611059565b820191906000526020600020905b81548152906001019060200180831161103c57829003601f168201915b50505050509080600701805461106e9061394a565b80601f016020809104026020016040519081016040528092919081815260200182805461109a9061394a565b80156110e75780601f106110bc576101008083540402835291602001916110e7565b820191906000526020600020905b8154815290600101906020018083116110ca57829003601f168201915b5050505050905088565b6000806110fd83611e8d565b9050600073ffffffffffffffffffffffffffffffffffffffff168173ffffffffffffffffffffffffffffffffffffffff16141561116f576040517f08c379a0000000000000000000000000000000000000000000000000000000008152600401611166906135aa565b60405180910390fd5b80915050919050565b60008073ffffffffffffffffffffffffffffffffffffffff168273ffffffffffffffffffffffffffffffffffffffff1614156111e9576040517f08c379a00000000000000000000000000000000000000000000000000000000081526004016111e09061354a565b60405180910390fd5b600360008373ffffffffffffffffffffffffffffffffffffffff1673ffffffffffffffffffffffffffffffffffffffff168152602001908152602001600020549050919050565b600660009054906101000a900473ffffffffffffffffffffffffffffffffffffffff1681565b60075481565b60606001805461126b9061394a565b80601f01602080910402602001604051908101604052809291908181526020018280546112979061394a565b80156112e45780601f106112b9576101008083540402835291602001916112e4565b820191906000526020600020905b8154815290600101906020018083116112c757829003601f168201915b5050505050905090565b600660009054906101000a900473ffffffffffffffffffffffffffffffffffffffff1673ffffffffffffffffffffffffffffffffffffffff163373ffffffffffffffffffffffffffffffffffffffff161461137e576040517f08c379a00000000000000000000000000000000000000000000000000000000081526004016113759061362a565b60405180910390fd5b60076000815480929190611391906139c7565b919050555060405180610100016040528060075481526020018781526020018681526020018581526020018581526020018481526020018381526020018281525060096000600754815260200190815260200160002060008201518160000155602082015181600101908051906020019061140d929190612755565b5060408201518160020155606082015181600301556080820151816004015560a0820151816005019080519060200190611448929190612755565b5060c0820151816006019080519060200190611465929190612755565b5060e0820151816007019080519060200190611482929190612755565b509050506009600060075481526020019081526020016000206040516114a8919061338d565b60405180910390206007547f6e5bfbb09564cbc13d25c2095cddaacd9d0be71fa820e08e300bcc47cb80e15660405160405180910390a3505050505050565b600a6020528160005260406000206020528060005260406000206000915091509054906101000a900460ff1681565b611528611521611a1f565b8383611eca565b5050565b600b6020528160005260406000206020528060005260406000206000915091509054906101000a900473ffffffffffffffffffffffffffffffffffffffff1681565b61157f611579611a1f565b83611afe565b6115be576040517f08c379a00000000000000000000000000000000000000000000000000000000081526004016115b59061346a565b60405180910390fd5b6115ca84848484612037565b50505050565b60606115db826119d4565b60006115e5612093565b905060008151116116055760405180602001604052806000815250611630565b8061160f846120aa565b604051602001611620929190613354565b6040516020818303038152906040525b915050919050565b6000600560008473ffffffffffffffffffffffffffffffffffffffff1673ffffffffffffffffffffffffffffffffffffffff16815260200190815260200160002060008373ffffffffffffffffffffffffffffffffffffffff1673ffffffffffffffffffffffffffffffffffffffff16815260200190815260200160002060009054906101000a900460ff16905092915050565b6116d46127db565b60096000838152602001908152602001600020604051806101000160405290816000820154815260200160018201805461170d9061394a565b80601f01602080910402602001604051908101604052809291908181526020018280546117399061394a565b80156117865780601f1061175b57610100808354040283529160200191611786565b820191906000526020600020905b81548152906001019060200180831161176957829003601f168201915b505050505081526020016002820154815260200160038201548152602001600482015481526020016005820180546117bd9061394a565b80601f01602080910402602001604051908101604052809291908181526020018280546117e99061394a565b80156118365780601f1061180b57610100808354040283529160200191611836565b820191906000526020600020905b81548152906001019060200180831161181957829003601f168201915b5050505050815260200160068201805461184f9061394a565b80601f016020809104026020016040519081016040528092919081815260200182805461187b9061394a565b80156118c85780601f1061189d576101008083540402835291602001916118c8565b820191906000526020600020905b8154815290600101906020018083116118ab57829003601f168201915b505050505081526020016007820180546118e19061394a565b80601f016020809104026020016040519081016040528092919081815260200182805461190d9061394a565b801561195a5780601f1061192f5761010080835404028352916020019161195a565b820191906000526020600020905b81548152906001019060200180831161193d57829003601f168201915b5050505050815250509050919050565b60007f01ffc9a7000000000000000000000000000000000000000000000000000000007bffffffffffffffffffffffffffffffffffffffffffffffffffffffff1916827bffffffffffffffffffffffffffffffffffffffffffffffffffffffff1916149050919050565b6119dd81612182565b611a1c576040517f08c379a0000000000000000000000000000000000000000000000000000000008152600401611a13906135aa565b60405180910390fd5b50565b600033905090565b816004600083815260200190815260200160002060006101000a81548173ffffffffffffffffffffffffffffffffffffffff021916908373ffffffffffffffffffffffffffffffffffffffff160217905550808273ffffffffffffffffffffffffffffffffffffffff16611a9a836110f1565b73ffffffffffffffffffffffffffffffffffffffff167f8c5be1e5ebec7d5bd14f71427d1e84f3dd0314c0f7b2291e5b200ac8c7c3b92560405160405180910390a45050565b611afa8282604051806020016040528060008152506121c3565b5050565b600080611b0a836110f1565b90508073ffffffffffffffffffffffffffffffffffffffff168473ffffffffffffffffffffffffffffffffffffffff161480611b4c5750611b4b8185611638565b5b80611b8a57508373ffffffffffffffffffffffffffffffffffffffff16611b72846107b5565b73ffffffffffffffffffffffffffffffffffffffff16145b91505092915050565b8273ffffffffffffffffffffffffffffffffffffffff16611bb3826110f1565b73ffffffffffffffffffffffffffffffffffffffff1614611c09576040517f08c379a0000000000000000000000000000000000000000000000000000000008152600401611c00906134aa565b60405180910390fd5b600073ffffffffffffffffffffffffffffffffffffffff168273ffffffffffffffffffffffffffffffffffffffff161415611c79576040517f08c379a0000000000000000000000000000000000000000000000000000000008152600401611c709061350a565b60405180910390fd5b611c86838383600161221e565b8273ffffffffffffffffffffffffffffffffffffffff16611ca6826110f1565b73ffffffffffffffffffffffffffffffffffffffff1614611cfc576040517f08c379a0000000000000000000000000000000000000000000000000000000008152600401611cf3906134aa565b60405180910390fd5b6004600082815260200190815260200160002060006101000a81549073ffffffffffffffffffffffffffffffffffffffff02191690556001600360008573ffffffffffffffffffffffffffffffffffffffff1673ffffffffffffffffffffffffffffffffffffffff168152602001908152602001600020600082825403925050819055506001600360008473ffffffffffffffffffffffffffffffffffffffff1673ffffffffffffffffffffffffffffffffffffffff16815260200190815260200160002060008282540192505081905550816002600083815260200190815260200160002060006101000a81548173ffffffffffffffffffffffffffffffffffffffff021916908373ffffffffffffffffffffffffffffffffffffffff160217905550808273ffffffffffffffffffffffffffffffffffffffff168473ffffffffffffffffffffffffffffffffffffffff167fddf252ad1be2c89b69c2b068fc378daa952ba7f163c4a11628f55a4df523b3ef60405160405180910390a4611e888383836001612224565b505050565b60006002600083815260200190815260200160002060009054906101000a900473ffffffffffffffffffffffffffffffffffffffff169050919050565b8173ffffffffffffffffffffffffffffffffffffffff168373ffffffffffffffffffffffffffffffffffffffff161415611f39576040517f08c379a0000000000000000000000000000000000000000000000000000000008152600401611f309061352a565b60405180910390fd5b80600560008573ffffffffffffffffffffffffffffffffffffffff1673ffffffffffffffffffffffffffffffffffffffff16815260200190815260200160002060008473ffffffffffffffffffffffffffffffffffffffff1673ffffffffffffffffffffffffffffffffffffffff16815260200190815260200160002060006101000a81548160ff0219169083151502179055508173ffffffffffffffffffffffffffffffffffffffff168373ffffffffffffffffffffffffffffffffffffffff167f17307eab39ab6107e8899845ad3d59bd9653f200f220920489ca2b5937696c318360405161202a919061342d565b60405180910390a3505050565b612042848484611b93565b61204e8484848461222a565b61208d576040517f08c379a00000000000000000000000000000000000000000000000000000000081526004016120849061348a565b60405180910390fd5b50505050565b606060405180602001604052806000815250905090565b6060600060016120b9846123c1565b01905060008167ffffffffffffffff8111156120d8576120d7613a9d565b5b6040519080825280601f01601f19166020018201604052801561210a5781602001600182028036833780820191505090505b509050600082602001820190505b600115612177578080600190039150507f3031323334353637383961626364656600000000000000000000000000000000600a86061a8153600a858161216157612160613a3f565b5b049450600085141561217257612177565b612118565b819350505050919050565b60008073ffffffffffffffffffffffffffffffffffffffff166121a483611e8d565b73ffffffffffffffffffffffffffffffffffffffff1614159050919050565b6121cd8383612514565b6121da600084848461222a565b612219576040517f08c379a00000000000000000000000000000000000000000000000000000000081526004016122109061348a565b60405180910390fd5b505050565b50505050565b50505050565b600061224b8473ffffffffffffffffffffffffffffffffffffffff16612732565b156123b4578373ffffffffffffffffffffffffffffffffffffffff1663150b7a02612274611a1f565b8786866040518563ffffffff1660e01b815260040161229694939291906133bf565b602060405180830381600087803b1580156122b057600080fd5b505af19250505080156122e157506040513d601f19601f820116820180604052508101906122de9190612b76565b60015b612364573d8060008114612311576040519150601f19603f3d011682016040523d82523d6000602084013e612316565b606091505b5060008151141561235c576040517f08c379a00000000000000000000000000000000000000000000000000000000081526004016123539061348a565b60405180910390fd5b805181602001fd5b63150b7a0260e01b7bffffffffffffffffffffffffffffffffffffffffffffffffffffffff1916817bffffffffffffffffffffffffffffffffffffffffffffffffffffffff1916149150506123b9565b600190505b949350505050565b600080600090507a184f03e93ff9f4daa797ed6e38ed64bf6a1f010000000000000000831061241f577a184f03e93ff9f4daa797ed6e38ed64bf6a1f010000000000000000838161241557612414613a3f565b5b0492506040810190505b6d04ee2d6d415b85acef8100000000831061245c576d04ee2d6d415b85acef8100000000838161245257612451613a3f565b5b0492506020810190505b662386f26fc10000831061248b57662386f26fc10000838161248157612480613a3f565b5b0492506010810190505b6305f5e10083106124b4576305f5e10083816124aa576124a9613a3f565b5b0492506008810190505b61271083106124d95761271083816124cf576124ce613a3f565b5b0492506004810190505b606483106124fc57606483816124f2576124f1613a3f565b5b0492506002810190505b600a831061250b576001810190505b80915050919050565b600073ffffffffffffffffffffffffffffffffffffffff168273ffffffffffffffffffffffffffffffffffffffff161415612584576040517f08c379a000000000000000000000000000000000000000000000000000000000815260040161257b9061356a565b60405180910390fd5b61258d81612182565b156125cd576040517f08c379a00000000000000000000000000000000000000000000000000000000081526004016125c4906134ca565b60405180910390fd5b6125db60008383600161221e565b6125e481612182565b15612624576040517f08c379a000000000000000000000000000000000000000000000000000000000815260040161261b906134ca565b60405180910390fd5b6001600360008473ffffffffffffffffffffffffffffffffffffffff1673ffffffffffffffffffffffffffffffffffffffff16815260200190815260200160002060008282540192505081905550816002600083815260200190815260200160002060006101000a81548173ffffffffffffffffffffffffffffffffffffffff021916908373ffffffffffffffffffffffffffffffffffffffff160217905550808273ffffffffffffffffffffffffffffffffffffffff16600073ffffffffffffffffffffffffffffffffffffffff167fddf252ad1be2c89b69c2b068fc378daa952ba7f163c4a11628f55a4df523b3ef60405160405180910390a461272e600083836001612224565b5050565b6000808273ffffffffffffffffffffffffffffffffffffffff163b119050919050565b8280546127619061394a565b90600052602060002090601f01602090048101928261278357600085556127ca565b82601f1061279c57805160ff19168380011785556127ca565b828001600101855582156127ca579182015b828111156127c95782518255916020019190600101906127ae565b5b5090506127d79190612820565b5090565b60405180610100016040528060008152602001606081526020016000815260200160008152602001600081526020016060815260200160608152602001606081525090565b5b80821115612839576000816000905550600101612821565b5090565b600061285061284b84613746565b613721565b90508281526020810184848401111561286c5761286b613ad1565b5b6128778482856138de565b509392505050565b600061289261288d84613777565b613721565b9050828152602081018484840111156128ae576128ad613ad1565b5b6128b98482856138de565b509392505050565b6000813590506128d081613e72565b92915050565b6000813590506128e581613e89565b92915050565b6000813590506128fa81613ea0565b92915050565b60008151905061290f81613ea0565b92915050565b600082601f83011261292a57612929613acc565b5b813561293a84826020860161283d565b91505092915050565b600082601f83011261295857612957613acc565b5b813561296884826020860161287f565b91505092915050565b60008135905061298081613eb7565b92915050565b60006020828403121561299c5761299b613adb565b5b60006129aa848285016128c1565b91505092915050565b600080604083850312156129ca576129c9613adb565b5b60006129d8858286016128c1565b92505060206129e9858286016128c1565b9150509250929050565b600080600060608486031215612a0c57612a0b613adb565b5b6000612a1a868287016128c1565b9350506020612a2b868287016128c1565b9250506040612a3c86828701612971565b9150509250925092565b60008060008060808587031215612a6057612a5f613adb565b5b6000612a6e878288016128c1565b9450506020612a7f878288016128c1565b9350506040612a9087828801612971565b925050606085013567ffffffffffffffff811115612ab157612ab0613ad6565b5b612abd87828801612915565b91505092959194509250565b60008060408385031215612ae057612adf613adb565b5b6000612aee858286016128c1565b9250506020612aff858286016128d6565b9150509250929050565b60008060408385031215612b2057612b1f613adb565b5b6000612b2e858286016128c1565b9250506020612b3f85828601612971565b9150509250929050565b600060208284031215612b5f57612b5e613adb565b5b6000612b6d848285016128eb565b91505092915050565b600060208284031215612b8c57612b8b613adb565b5b6000612b9a84828501612900565b91505092915050565b60008060008060008060c08789031215612bc057612bbf613adb565b5b600087013567ffffffffffffffff811115612bde57612bdd613ad6565b5b612bea89828a01612943565b9650506020612bfb89828a01612971565b9550506040612c0c89828a01612971565b945050606087013567ffffffffffffffff811115612c2d57612c2c613ad6565b5b612c3989828a01612943565b935050608087013567ffffffffffffffff811115612c5a57612c59613ad6565b5b612c6689828a01612943565b92505060a087013567ffffffffffffffff811115612c8757612c86613ad6565b5b612c9389828a01612943565b9150509295509295509295565b600060208284031215612cb657612cb5613adb565b5b6000612cc484828501612971565b91505092915050565b60008060408385031215612ce457612ce3613adb565b5b6000612cf285828601612971565b9250506020612d03858286016128c1565b9150509250929050565b60008060408385031215612d2457612d23613adb565b5b6000612d3285828601612971565b9250506020612d4385828601612971565b9150509250929050565b6000612d598383612ee9565b905092915050565b6000612d6d8383613327565b60208301905092915050565b6000612d858383613345565b60208301905092915050565b612d9a8161386a565b82525050565b6000612dab826137cd565b612db581856137fb565b9350612dc0836137a8565b8060005b83811015612df1578151612dd88882612d61565b9750612de3836137ee565b925050600181019050612dc4565b5085935050505092915050565b612e078161387c565b82525050565b6000612e18826137d8565b612e22818561380c565b9350612e328185602086016138ed565b612e3b81613ae0565b840191505092915050565b6000612e51826137e3565b612e5b8185613828565b9350612e6b8185602086016138ed565b612e7481613ae0565b840191505092915050565b6000612e8a826137e3565b612e948185613839565b9350612ea48185602086016138ed565b612ead81613ae0565b840191505092915050565b6000612ec3826137e3565b612ecd8185613855565b9350612edd8185602086016138ed565b80840191505092915050565b60008154612ef68161394a565b612f00818661384a565b94506001821660008114612f1b5760018114612f2d57612f60565b60ff1983168652602086019350612f60565b612f36856137b8565b60005b83811015612f5857815481890152600182019150602081019050612f39565b808801955050505b50505092915050565b6000612f76602d83613839565b9150612f8182613afe565b604082019050919050565b6000612f99603283613839565b9150612fa482613b4d565b604082019050919050565b6000612fbc602583613839565b9150612fc782613b9c565b604082019050919050565b6000612fdf601c83613839565b9150612fea82613beb565b602082019050919050565b6000613002601283613839565b915061300d82613c14565b602082019050919050565b6000613025602483613839565b915061303082613c3d565b604082019050919050565b6000613048601983613839565b915061305382613c8c565b602082019050919050565b600061306b602983613839565b915061307682613cb5565b604082019050919050565b600061308e602083613839565b915061309982613d04565b602082019050919050565b60006130b1601283613839565b91506130bc82613d2d565b602082019050919050565b60006130d4601883613839565b91506130df82613d56565b602082019050919050565b60006130f7602183613839565b915061310282613d7f565b604082019050919050565b600061311a60008361381d565b915061312582613dce565b600082019050919050565b600061313d603d83613839565b915061314882613dd1565b604082019050919050565b6000613160601483613839565b915061316b82613e20565b602082019050919050565b6000613183601583613839565b915061318e82613e49565b602082019050919050565b6000610100830160008301516131b26000860182613327565b50602083015184820360208601526131ca8282612e46565b91505060408301516131df6040860182613327565b5060608301516131f26060860182613327565b5060808301516132056080860182613327565b5060a083015184820360a086015261321d8282612e46565b91505060c083015184820360c08601526132378282612e46565b91505060e083015184820360e08601526132518282612e46565b9150508091505092915050565b600080830160008084015490506132748161397c565b61327e8682612d79565b9550506001840161328f8682612d4d565b955050600284015490506132a28161397c565b6132ac8682612d79565b955050600384015490506132bf8161397c565b6132c98682612d79565b955050600484015490506132dc8161397c565b6132e68682612d79565b955050600584016132f78682612d4d565b955050600684016133088682612d4d565b955050600784016133198682612d4d565b955050849250505092915050565b613330816138d4565b82525050565b61333f816138d4565b82525050565b61334e816138d4565b82525050565b60006133608285612eb8565b915061336c8284612eb8565b91508190509392505050565b60006133838261310d565b9150819050919050565b6000613399828461325e565b915081905092915050565b60006020820190506133b96000830184612d91565b92915050565b60006080820190506133d46000830187612d91565b6133e16020830186612d91565b6133ee6040830185613336565b81810360608301526134008184612e0d565b905095945050505050565b600060208201905081810360008301526134258184612da0565b905092915050565b60006020820190506134426000830184612dfe565b92915050565b600060208201905081810360008301526134628184612e7f565b905092915050565b6000602082019050818103600083015261348381612f69565b9050919050565b600060208201905081810360008301526134a381612f8c565b9050919050565b600060208201905081810360008301526134c381612faf565b9050919050565b600060208201905081810360008301526134e381612fd2565b9050919050565b6000602082019050818103600083015261350381612ff5565b9050919050565b6000602082019050818103600083015261352381613018565b9050919050565b600060208201905081810360008301526135438161303b565b9050919050565b600060208201905081810360008301526135638161305e565b9050919050565b6000602082019050818103600083015261358381613081565b9050919050565b600060208201905081810360008301526135a3816130a4565b9050919050565b600060208201905081810360008301526135c3816130c7565b9050919050565b600060208201905081810360008301526135e3816130ea565b9050919050565b6000602082019050818103600083015261360381613130565b9050919050565b6000602082019050818103600083015261362381613153565b9050919050565b6000602082019050818103600083015261364381613176565b9050919050565b600060208201905081810360008301526136648184613199565b905092915050565b60006020820190506136816000830184613336565b92915050565b60006101008201905061369d600083018b613336565b81810360208301526136af818a612e7f565b90506136be6040830189613336565b6136cb6060830188613336565b6136d86080830187613336565b81810360a08301526136ea8186612e7f565b905081810360c08301526136fe8185612e7f565b905081810360e08301526137128184612e7f565b90509998505050505050505050565b600061372b61373c565b90506137378282613996565b919050565b6000604051905090565b600067ffffffffffffffff82111561376157613760613a9d565b5b61376a82613ae0565b9050602081019050919050565b600067ffffffffffffffff82111561379257613791613a9d565b5b61379b82613ae0565b9050602081019050919050565b6000819050602082019050919050565b60008190508160005260206000209050919050565b600081519050919050565b600081519050919050565b600081519050919050565b6000602082019050919050565b600082825260208201905092915050565b600082825260208201905092915050565b600081905092915050565b600082825260208201905092915050565b600082825260208201905092915050565b600081905092915050565b600081905092915050565b6000819050919050565b6000613875826138b4565b9050919050565b60008115159050919050565b60007fffffffff0000000000000000000000000000000000000000000000000000000082169050919050565b600073ffffffffffffffffffffffffffffffffffffffff82169050919050565b6000819050919050565b82818337600083830152505050565b60005b8381101561390b5780820151818401526020810190506138f0565b8381111561391a576000848401525b50505050565b600061392b826138d4565b9150600082141561393f5761393e613a10565b5b600182039050919050565b6000600282049050600182168061396257607f821691505b6020821081141561397657613975613a6e565b5b50919050565b600061398f61398a83613af1565b613860565b9050919050565b61399f82613ae0565b810181811067ffffffffffffffff821117156139be576139bd613a9d565b5b80604052505050565b60006139d2826138d4565b91507fffffffffffffffffffffffffffffffffffffffffffffffffffffffffffffffff821415613a0557613a04613a10565b5b600182019050919050565b7f4e487b7100000000000000000000000000000000000000000000000000000000600052601160045260246000fd5b7f4e487b7100000000000000000000000000000000000000000000000000000000600052601260045260246000fd5b7f4e487b7100000000000000000000000000000000000000000000000000000000600052602260045260246000fd5b7f4e487b7100000000000000000000000000000000000000000000000000000000600052604160045260246000fd5b600080fd5b600080fd5b600080fd5b600080fd5b6000601f19601f8301169050919050565b60008160001c9050919050565b7f4552433732313a2063616c6c6572206973206e6f7420746f6b656e206f776e6560008201527f72206f7220617070726f76656400000000000000000000000000000000000000602082015250565b7f4552433732313a207472616e7366657220746f206e6f6e20455243373231526560008201527f63656976657220696d706c656d656e7465720000000000000000000000000000602082015250565b7f4552433732313a207472616e736665722066726f6d20696e636f72726563742060008201527f6f776e6572000000000000000000000000000000000000000000000000000000602082015250565b7f4552433732313a20746f6b656e20616c7265616479206d696e74656400000000600082015250565b7f496e76616c6964204964206f7220736561740000000000000000000000000000600082015250565b7f4552433732313a207472616e7366657220746f20746865207a65726f2061646460008201527f7265737300000000000000000000000000000000000000000000000000000000602082015250565b7f4552433732313a20617070726f766520746f2063616c6c657200000000000000600082015250565b7f4552433732313a2061646472657373207a65726f206973206e6f74206120766160008201527f6c6964206f776e65720000000000000000000000000000000000000000000000602082015250565b7f4552433732313a206d696e7420746f20746865207a65726f2061646472657373600082015250565b7f5365617420616c72656164792074616b656e0000000000000000000000000000600082015250565b7f4552433732313a20696e76616c696420746f6b656e2049440000000000000000600082015250565b7f4552433732313a20617070726f76616c20746f2063757272656e74206f776e6560008201527f7200000000000000000000000000000000000000000000000000000000000000602082015250565b50565b7f4552433732313a20617070726f76652063616c6c6572206973206e6f7420746f60008201527f6b656e206f776e6572206f7220617070726f76656420666f7220616c6c000000602082015250565b7f596f75206861766520746f20706179206d6f7265000000000000000000000000600082015250565b7f796f7520617265206e6f7420746865206f77656e720000000000000000000000600082015250565b613e7b8161386a565b8114613e8657600080fd5b50565b613e928161387c565b8114613e9d57600080fd5b50565b613ea981613888565b8114613eb457600080fd5b50565b613ec0816138d4565b8114613ecb57600080fd5b5056fea264697066735822122031ef622c845099959e1b089fa8112cd903e8a4c32f78af64c7c3b35eea27e27d64736f6c63430008070033",
  "linkReferences": {},
  "deployedLinkReferences": {}
}